{
  "contractName": "EthGrid",
  "abi": [
    {
      "constant": true,
      "inputs": [
        {
          "name": "",
          "type": "address"
        },
        {
          "name": "y",
          "type": "uint8"
        },
        {
          "name": "w",
          "type": "uint8"
        },
        {
          "name": "h",
          "type": "uint8"
        },
        {
          "name": "buyout",
          "type": "uint56"
        },
        {
          "name": "mimeType",
          "type": "string"
        },
        {
          "name": "imgData",
          "type": "bytes"
        },
        {
          "name": "url",
          "type": "string"
        }
      ],
      "name": "balances",
      "outputs": [
        {
          "name": "",
          "type": "uint256"
        }
      ],
      "payable": false,
      "stateMutability": "view",
      "type": "function"
    },
    {
      "constant": false,
      "inputs": [
        {
          "name": "x",
          "type": "uint8"
        },
        {
          "name": "y",
          "type": "uint8"
        },
        {
          "name": "w",
          "type": "uint8"
        },
        {
          "name": "h",
          "type": "uint8"
        },
        {
          "name": "buyout",
          "type": "uint56"
        },
        {
          "name": "mimeType",
          "type": "uint8"
        },
        {
          "name": "imgData",
          "type": "bytes"
        },
        {
          "name": "url",
          "type": "string"
        }
      ],
      "name": "addData",
      "outputs": [
        {
          "name": "owner",
          "type": "address"
        },
        {
          "name": "x",
          "type": "uint8"
        },
        {
          "name": "y",
          "type": "uint8"
        },
        {
          "name": "w",
          "type": "uint8"
        },
        {
          "name": "h",
          "type": "uint8"
        },
        {
          "name": "buyoutInGwei",
          "type": "uint56"
        }
      ],
      "payable": true,
      "stateMutability": "payable",
      "type": "function"
    },
    {
      "constant": true,
      "inputs": [
        {
          "name": "",
          "type": "uint256"
        }
      ],
      "name": "ownership",
      "outputs": [
        {
          "name": "owner",
          "type": "address"
        },
        {
          "name": "x",
          "type": "uint8"
        },
        {
          "name": "y",
          "type": "uint8"
        },
        {
          "name": "w",
          "type": "uint8"
        },
        {
          "name": "h",
          "type": "uint8"
        },
        {
          "name": "buyoutInGwei",
          "type": "uint56"
        }
      ],
      "payable": false,
      "stateMutability": "view",
      "type": "function"
    },
    {
      "constant": true,
      "inputs": [
        {
          "name": "",
          "type": "uint256"
        },
        {
          "name": "y",
          "type": "uint8"
        },
        {
          "name": "w",
          "type": "uint8"
        },
        {
          "name": "h",
          "type": "uint8"
        },
        {
          "name": "buyout",
          "type": "uint56"
        }
      ],
      "name": "data",
      "outputs": [
        {
          "name": "mimeType",
          "type": "uint8"
        },
        {
          "name": "data",
          "type": "bytes"
        },
        {
          "name": "url",
          "type": "string"
        }
      ],
      "payable": false,
      "stateMutability": "view",
      "type": "function"
    },
    {
      "inputs": [
        {
          "name": "x",
          "type": "uint8"
        },
        {
          "name": "y",
          "type": "uint8"
        },
        {
          "name": "w",
          "type": "uint8"
        },
        {
          "name": "h",
          "type": "uint8"
        },
        {
          "name": "buyout",
          "type": "uint56"
        }
      ],
      "payable": false,
      "stateMutability": "nonpayable",
      "type": "function",
      "constant": false,
      "name": "buyArea",
      "outputs": []
    },
    {
      "anonymous": false,
      "inputs": [
        {
          "components": [
            {
              "name": "x",
              "type": "uint8"
            },
            {
              "name": "y",
              "type": "uint8"
            },
            {
              "name": "w",
              "type": "uint8"
            },
            {
              "name": "h",
              "type": "uint8"
            }
          ],
          "indexed": false,
          "name": "target",
          "type": "tuple"
        },
        {
          "components": [
            {
              "name": "x",
              "type": "uint8"
            },
            {
              "name": "y",
              "type": "uint8"
            },
            {
              "name": "w",
              "type": "uint8"
            },
            {
              "name": "h",
              "type": "uint8"
            }
          ],
          "indexed": false,
          "name": "ownedZone",
          "type": "tuple"
        }
      ],
      "name": "OverlapComputed",
      "type": "constructor",
      "payable": true,
      "stateMutability": "payable"
    },
    {
      "anonymous": false,
      "inputs": [
        {
          "indexed": false,
          "name": "x",
          "type": "uint16",
          "components": [
            {
              "name": "x",
              "type": "uint8"
            },
            {
              "name": "y",
              "type": "uint8"
            },
            {
              "name": "w",
              "type": "uint8"
            },
            {
              "name": "h",
              "type": "uint8"
            }
          ]
        },
        {
          "indexed": false,
          "name": "y",
          "type": "uint16"
        },
        {
          "indexed": false,
          "name": "w",
          "type": "uint16"
        },
        {
          "indexed": false,
          "name": "h",
          "type": "uint16"
        },
        {
          "indexed": false,
          "name": "totalCost",
          "type": "uint256"
        }
      ],
      "name": "AreaCost",
      "type": "event"
    },
    {
      "anonymous": false,
      "inputs": [
        {
          "indexed": false,
          "name": "length",
          "type": "uint256"
        },
        {
          "indexed": false,
          "name": "y",
          "type": "uint16"
        },
        {
          "indexed": false,
          "name": "w",
          "type": "uint16"
        },
        {
          "indexed": false,
          "name": "h",
          "type": "uint16"
        },
        {
          "indexed": false,
          "name": "totalCost",
          "type": "uint256"
        }
      ],
      "name": "OwnershipLength",
      "type": "event"
    },
    {
      "anonymous": false,
      "inputs": [
        {
          "indexed": false,
          "name": "x",
          "type": "uint16"
        },
        {
          "indexed": false,
          "name": "y",
          "type": "uint16"
        },
        {
          "indexed": false,
          "name": "w",
          "type": "uint16"
        },
        {
          "indexed": false,
          "name": "h",
          "type": "uint16"
        },
        {
          "indexed": false,
          "name": "totalCost",
          "type": "uint256"
        }
      ],
      "name": "AreaCost",
      "type": "event"
    }
  ],
  "bytecode": "0x606060405233600160006101000a81548173ffffffffffffffffffffffffffffffffffffffff021916908373ffffffffffffffffffffffffffffffffffffffff1602179055506103e866ffffffffffffff16600081905550600280548060010182816200006d91906200036c565b9160005260206000209001600060c060405190810160405280600160009054906101000a900473ffffffffffffffffffffffffffffffffffffffff1673ffffffffffffffffffffffffffffffffffffffff168152602001600060ff168152602001600060ff16815260200160fa60ff16815260200160fa60ff1681526020016103e866ffffffffffffff16815250909190915060008201518160000160006101000a81548173ffffffffffffffffffffffffffffffffffffffff021916908373ffffffffffffffffffffffffffffffffffffffff16021790555060208201518160000160146101000a81548160ff021916908360ff16021790555060408201518160000160156101000a81548160ff021916908360ff16021790555060608201518160000160166101000a81548160ff021916908360ff16021790555060808201518160000160176101000a81548160ff021916908360ff16021790555060a08201518160000160186101000a81548166ffffffffffffff021916908366ffffffffffffff160217905550505050600380548060010182816200021191906200039b565b91600052602060002090600302016000606060405190810160405280600060048111156200023b57fe5b8152602001602060405190810160405280600081525081526020016040805190810160405280601281526020017f687474703a2f2f657468677269642e636f6d0000000000000000000000000000815250815250909190915060008201518160000160006101000a81548160ff02191690836004811115620002b957fe5b02179055506020820151816001019080519060200190620002dc929190620003d0565b506040820151816002019080519060200190620002fb92919062000457565b50505050600060046000600160009054906101000a900473ffffffffffffffffffffffffffffffffffffffff1673ffffffffffffffffffffffffffffffffffffffff1673ffffffffffffffffffffffffffffffffffffffff16815260200190815260200160002081905550620006ab565b8154818355818115116200039657818360005260206000209182019101620003959190620004de565b5b505050565b815481835581811511620003cb57600302816003028360005260206000209182019101620003ca919062000591565b5b505050565b828054600181600116156101000203166002900490600052602060002090601f016020900481019282601f106200041357805160ff191683800117855562000444565b8280016001018555821562000444579182015b828111156200044357825182559160200191906001019062000426565b5b509050620004539190620005eb565b5090565b828054600181600116156101000203166002900490600052602060002090601f016020900481019282601f106200049a57805160ff1916838001178555620004cb565b82800160010185558215620004cb579182015b82811115620004ca578251825591602001919060010190620004ad565b5b509050620004da9190620005eb565b5090565b6200058e91905b808211156200058a57600080820160006101000a81549073ffffffffffffffffffffffffffffffffffffffff02191690556000820160146101000a81549060ff02191690556000820160156101000a81549060ff02191690556000820160166101000a81549060ff02191690556000820160176101000a81549060ff02191690556000820160186101000a81549066ffffffffffffff021916905550600101620004e5565b5090565b90565b620005e891905b80821115620005e457600080820160006101000a81549060ff0219169055600182016000620005c8919062000613565b600282016000620005da91906200065f565b5060030162000598565b5090565b90565b6200061091905b808211156200060c576000816000905550600101620005f2565b5090565b90565b50805460018160011615610100020316600290046000825580601f106200063b57506200065c565b601f0160209004906000526020600020908101906200065b9190620005eb565b5b50565b50805460018160011615610100020316600290046000825580601f10620006875750620006a8565b601f016020900490600052602060002090810190620006a79190620005eb565b5b50565b611c9c80620006bb6000396000f30060606040526004361061006d576000357c0100000000000000000000000000000000000000000000000000000000900463ffffffff16806327e235e3146100725780637d375a35146100bf578063a0f45b69146101a2578063f0ba844014610252578063fd5a7a87146103a9575b600080fd5b341561007d57600080fd5b6100a9600480803573ffffffffffffffffffffffffffffffffffffffff16906020019091905050610405565b6040518082815260200191505060405180910390f35b6101a0600480803560ff1690602001909190803560ff1690602001909190803560ff1690602001909190803560ff1690602001909190803566ffffffffffffff1690602001909190803560ff1690602001909190803590602001908201803590602001908080601f0160208091040260200160405190810160405280939291908181526020018383808284378201915050505050509190803590602001908201803590602001908080601f0160208091040260200160405190810160405280939291908181526020018383808284378201915050505050509190505061041d565b005b34156101ad57600080fd5b6101c36004808035906020019091905050610809565b604051808773ffffffffffffffffffffffffffffffffffffffff1673ffffffffffffffffffffffffffffffffffffffff1681526020018660ff1660ff1681526020018560ff1660ff1681526020018460ff1660ff1681526020018360ff1660ff1681526020018266ffffffffffffff1666ffffffffffffff168152602001965050505050505060405180910390f35b341561025d57600080fd5b61027360048080359060200190919050506108b8565b6040518084600481111561028357fe5b60ff16815260200180602001806020018381038352858181546001816001161561010002031660029004815260200191508054600181600116156101000203166002900480156103145780601f106102e957610100808354040283529160200191610314565b820191906000526020600020905b8154815290600101906020018083116102f757829003601f168201915b50508381038252848181546001816001161561010002031660029004815260200191508054600181600116156101000203166002900480156103975780601f1061036c57610100808354040283529160200191610397565b820191906000526020600020905b81548152906001019060200180831161037a57829003601f168201915b50509550505050505060405180910390f35b34156103b457600080fd5b610403600480803560ff1690602001909190803560ff1690602001909190803560ff1690602001909190803560ff1690602001909190803566ffffffffffffff169060200190919050506108fc565b005b60046020528060005260406000206000915090505481565b610425611819565b60008061043061184e565b6104386118b0565b60fa60ff168d60ff16108015610452575060008d60ff1610155b151561045d57600080fd5b60fa60ff168c60ff16108015610477575060008c60ff1610155b151561048257600080fd5b60008b60ff1611801561049d57508c60fa0360ff168b60ff16105b15156104a857600080fd5b60008a60ff161180156104c357508b60fa0360ff168a60ff16105b15156104ce57600080fd5b6103e861ffff168a8c0260ff161015156104e757600080fd5b6080604051908101604052808e60ff1681526020018d60ff1681526020018c60ff1681526020018b60ff168152509450610522856001610ba3565b935083620186a060005481151561053557fe5b040292508284019350633b9aca0084029350833411151561055557600080fd5b8260046000600160009054906101000a900473ffffffffffffffffffffffffffffffffffffffff1673ffffffffffffffffffffffffffffffffffffffff1673ffffffffffffffffffffffffffffffffffffffff1681526020019081526020016000206000828254019250508190555060c0604051908101604052803373ffffffffffffffffffffffffffffffffffffffff1681526020018e60ff1681526020018d60ff1681526020018c60ff1681526020018b60ff1681526020018a66ffffffffffffff1681525091506002805480600101828161063391906118e9565b9160005260206000209001600084909190915060008201518160000160006101000a81548173ffffffffffffffffffffffffffffffffffffffff021916908373ffffffffffffffffffffffffffffffffffffffff16021790555060208201518160000160146101000a81548160ff021916908360ff16021790555060408201518160000160156101000a81548160ff021916908360ff16021790555060608201518160000160166101000a81548160ff021916908360ff16021790555060808201518160000160176101000a81548160ff021916908360ff16021790555060a08201518160000160186101000a81548166ffffffffffffff021916908366ffffffffffffff16021790555050505060606040519081016040528089600481111561075957fe5b81526020018881526020018781525090506003805480600101828161077e9190611915565b9160005260206000209060030201600083909190915060008201518160000160006101000a81548160ff021916908360048111156107b857fe5b021790555060208201518160010190805190602001906107d9929190611947565b5060408201518160020190805190602001906107f69291906119c7565b5050505050505050505050505050505050565b60028181548110151561081857fe5b90600052602060002090016000915090508060000160009054906101000a900473ffffffffffffffffffffffffffffffffffffffff16908060000160149054906101000a900460ff16908060000160159054906101000a900460ff16908060000160169054906101000a900460ff16908060000160179054906101000a900460ff16908060000160189054906101000a900466ffffffffffffff16905086565b6003818154811015156108c757fe5b90600052602060002090600302016000915090508060000160009054906101000a900460ff1690806001019080600201905083565b610904611819565b600061090e61184e565b6104008860ff1610151561092157600080fd5b6104008760ff1610151561093457600080fd5b8760ff166104000361ffff168660ff1610151561095057600080fd5b8660ff166104000361ffff168560ff1610151561096c57600080fd5b6080604051908101604052808960ff1681526020018860ff1681526020018760ff1681526020018660ff1681525092506109a7836000610ba3565b91507f418afd8b97a480b9a90db223b6bcf7770411c83066fd9fbad2e67d8514eba1da8888888886604051808660ff1661ffff1681526020018560ff1661ffff1681526020018460ff1661ffff1681526020018360ff1661ffff1681526020018281526020019550505050505060405180910390a160c0604051908101604052803373ffffffffffffffffffffffffffffffffffffffff1681526020018960ff1681526020018860ff1681526020018760ff1681526020018660ff1681526020018566ffffffffffffff16815250905060028054806001018281610a8b91906118e9565b9160005260206000209001600083909190915060008201518160000160006101000a81548173ffffffffffffffffffffffffffffffffffffffff021916908373ffffffffffffffffffffffffffffffffffffffff16021790555060208201518160000160146101000a81548160ff021916908360ff16021790555060408201518160000160156101000a81548160ff021916908360ff16021790555060608201518160000160166101000a81548160ff021916908360ff16021790555060808201518160000160176101000a81548160ff021916908360ff16021790555060a08201518160000160186101000a81548166ffffffffffffff021916908366ffffffffffffff1602179055505050505050505050505050565b6000610bad611a47565b6000806000806000610bbd611819565b610bc5611a47565b60008b606001518c604001510260ff16604051805910610be25750595b908082528060200260200182016040528015610c1857816020015b610c05611a5b565b815260200190600190039081610bfd5790505b5098508b896000815181101515610c2b57fe5b90602001906020020181905250600197506000965060016002805490500395505b6002805490508610156110ed576001945060009350608060405190810160405280600288815481101515610c7c57fe5b906000526020600020900160000160149054906101000a900460ff1660ff168152602001600288815481101515610caf57fe5b906000526020600020900160000160159054906101000a900460ff1660ff168152602001600288815481101515610ce257fe5b906000526020600020900160000160169054906101000a900460ff1660ff168152602001600288815481101515610d1557fe5b906000526020600020900160000160179054906101000a900460ff1660ff1681525092505b8761ffff16841415156110d45760008985815181101515610d5757fe5b906020019060200201516040015160ff161415610d7b578380600101945050610d3a565b60009450610da08985815181101515610d9057fe5b90602001906020020151846110ff565b156110c757610dc68985815181101515610db657fe5b906020019060200201518461117d565b9150600286815481101515610dd757fe5b906000526020600020900160000160189054906101000a900466ffffffffffffff16826004815181101515610e0857fe5b9060200190602002015160600151836004815181101515610e2557fe5b90602001906020020151604001510260ff160266ffffffffffffff16905080870196508a15610ed9578060046000600289815481101515610e6257fe5b906000526020600020900160000160009054906101000a900473ffffffffffffffffffffffffffffffffffffffff1673ffffffffffffffffffffffffffffffffffffffff1673ffffffffffffffffffffffffffffffffffffffff168152602001908152602001600020600082825401925050819055505b608060405190810160405280600060ff168152602001600060ff168152602001600060ff168152602001600060ff168152508985815181101515610f1957fe5b906020019060200201819052506000826000815181101515610f3757fe5b906020019060200201516040015160ff16141515610f8e57816000815181101515610f5e57fe5b906020019060200201518989806001019a5061ffff16815181101515610f8057fe5b906020019060200201819052505b6000826001815181101515610f9f57fe5b906020019060200201516040015160ff16141515610ff657816001815181101515610fc657fe5b906020019060200201518989806001019a5061ffff16815181101515610fe857fe5b906020019060200201819052505b600082600281518110151561100757fe5b906020019060200201516040015160ff1614151561105e5781600281518110151561102e57fe5b906020019060200201518989806001019a5061ffff1681518110151561105057fe5b906020019060200201819052505b600082600381518110151561106f57fe5b906020019060200201516040015160ff161415156110c65781600381518110151561109657fe5b906020019060200201518989806001019a5061ffff168151811015156110b857fe5b906020019060200201819052505b5b8380600101945050610d3a565b84156110df576110ed565b858060019003965050610c4c565b86995050505050505050505092915050565b6000816040015182600001510160ff16836000015160ff161080156111375750816000015160ff16836040015184600001510160ff16115b80156111565750816060015182602001510160ff16836020015160ff16105b80156111755750816020015160ff16836060015184602001510160ff16115b905092915050565b611185611a47565b61118d611a47565b611195611819565b61119d611819565b6111a5611819565b6111ad611819565b6111b5611819565b60056040518059106111c45750595b9080825280602002602001820160405280156111fa57816020015b6111e7611a5b565b8152602001906001900390816111df5790505b5095506080604051908101604052808a6000015160ff1681526020018a6020015160ff1681526020018a6040015160ff1681526020018a6060015160ff168152509450886000015160ff16886000015160ff1611156112ed576080604051908101604052808a6000015160ff1681526020018a6020015160ff1681526020018a600001518a600001510360ff1681526020018a6060015160ff168152509350838660008151811015156112a957fe5b906020019060200201819052508360400151856040015103856040019060ff16908160ff16815250508760000151856000019060ff16908160ff168152505061133c565b608060405190810160405280600060ff168152602001600060ff168152602001600060ff168152602001600060ff1681525086600081518110151561132e57fe5b906020019060200201819052505b886040015189600001510160ff16886040015189600001510160ff1610156113f45760806040519081016040528089604001518a600001510160ff1681526020018a6020015160ff16815260200189604001518a600001518c604001518d6000015101030360ff1681526020018a6060015160ff168152509250828660018151811015156113c657fe5b906020019060200201819052508260400151856040015103856040019060ff16908160ff1681525050611443565b608060405190810160405280600060ff168152602001600060ff168152602001600060ff168152602001600060ff1681525086600181518110151561143557fe5b906020019060200201819052505b886020015160ff16886020015160ff1611156115c5576080604051908101604052808a6000015160ff1681526020018a6020015160ff1681526020018a6040015160ff1681526020018a602001518a602001510360ff16815250915060008660008151811015156114b057fe5b906020019060200201516040015160ff16141515611513578760000151826000019060ff16908160ff16815250508560008151811015156114ed57fe5b9060200190602002015160400151826040015103826040019060ff16908160ff16815250505b600086600181518110151561152457fe5b906020019060200201516040015160ff161415156115715785600181518110151561154b57fe5b9060200190602002015160400151826040015103826040019060ff16908160ff16815250505b8186600281518110151561158157fe5b906020019060200201819052508160600151856060015103856060019060ff16908160ff16815250508760200151856020019060ff16908160ff1681525050611614565b608060405190810160405280600060ff168152602001600060ff168152602001600060ff168152602001600060ff1681525086600281518110151561160657fe5b906020019060200201819052505b886060015189602001510160ff16886060015189602001510160ff16101561179e576080604051908101604052808a6000015160ff16815260200189606001518a602001510160ff1681526020018a6040015160ff16815260200189606001518a602001518c606001518d6020015101030360ff168152509050600086600081518110151561169f57fe5b906020019060200201516040015160ff16141515611702578760000151816000019060ff16908160ff16815250508560008151811015156116dc57fe5b9060200190602002015160400151816040015103816040019060ff16908160ff16815250505b600086600181518110151561171357fe5b906020019060200201516040015160ff161415156117605785600181518110151561173a57fe5b9060200190602002015160400151816040015103816040019060ff16908160ff16815250505b8086600381518110151561177057fe5b906020019060200201819052508060600151856060015103856060019060ff16908160ff16815250506117ed565b608060405190810160405280600060ff168152602001600060ff168152602001600060ff168152602001600060ff168152508660038151811015156117df57fe5b906020019060200201819052505b848660048151811015156117fd57fe5b9060200190602002018190525085965050505050505092915050565b608060405190810160405280600060ff168152602001600060ff168152602001600060ff168152602001600060ff1681525090565b60c060405190810160405280600073ffffffffffffffffffffffffffffffffffffffff168152602001600060ff168152602001600060ff168152602001600060ff168152602001600060ff168152602001600066ffffffffffffff1681525090565b606060405190810160405280600060048111156118c957fe5b81526020016118d6611a90565b81526020016118e3611aa4565b81525090565b8154818355818115116119105781836000526020600020918201910161190f9190611ab8565b5b505050565b815481835581811511611942576003028160030283600052602060002091820191016119419190611b68565b5b505050565b828054600181600116156101000203166002900490600052602060002090601f016020900481019282601f1061198857805160ff19168380011785556119b6565b828001600101855582156119b6579182015b828111156119b557825182559160200191906001019061199a565b5b5090506119c39190611bbb565b5090565b828054600181600116156101000203166002900490600052602060002090601f016020900481019282601f10611a0857805160ff1916838001178555611a36565b82800160010185558215611a36579182015b82811115611a35578251825591602001919060010190611a1a565b5b509050611a439190611bbb565b5090565b602060405190810160405280600081525090565b608060405190810160405280600060ff168152602001600060ff168152602001600060ff168152602001600060ff1681525090565b602060405190810160405280600081525090565b602060405190810160405280600081525090565b611b6591905b80821115611b6157600080820160006101000a81549073ffffffffffffffffffffffffffffffffffffffff02191690556000820160146101000a81549060ff02191690556000820160156101000a81549060ff02191690556000820160166101000a81549060ff02191690556000820160176101000a81549060ff02191690556000820160186101000a81549066ffffffffffffff021916905550600101611abe565b5090565b90565b611bb891905b80821115611bb457600080820160006101000a81549060ff0219169055600182016000611b9b9190611be0565b600282016000611bab9190611c28565b50600301611b6e565b5090565b90565b611bdd91905b80821115611bd9576000816000905550600101611bc1565b5090565b90565b50805460018160011615610100020316600290046000825580601f10611c065750611c25565b601f016020900490600052602060002090810190611c249190611bbb565b5b50565b50805460018160011615610100020316600290046000825580601f10611c4e5750611c6d565b601f016020900490600052602060002090810190611c6c9190611bbb565b5b505600a165627a7a723058202a026d599fee063a1c031ea6cbd5f53f52a9eb1b2fe913db0afaeb312c07ea400029",
  "source": "pragma solidity ^0.4.18;\ncontract EthGrid {\n    struct Rect {\n        uint8 x;\n        uint8 y;\n        uint8 w;\n        uint8 h;\n    }\n    \n    struct ZoneOwnership {\n        address owner;\n        uint8 x;\n        uint8 y;\n        uint8 w;\n        uint8 h;\n        uint56 buyoutInGwei;\n    }\n\n    enum MimeType {\n      PNG,\n      SVG,\n      JPG,\n      GIF,\n      WEBP\n    }\n    \n    struct ZoneData {\n        MimeType mimeType;\n        bytes data;\n        string url;\n    }\n    \n    uint feeInThousandsOfPercent;\n    address admin;\n    ZoneOwnership[] public ownership;\n    ZoneData[] public data;\n    mapping(address => uint256) public balances;\n\n    uint8 constant GRID_WIDTH = 250;\n    uint8 constant GRID_HEIGHT = 250;\n    uint56 constant INITIAL_BUYOUT_IN_GWEI = 1000;\n    uint56 constant INITIAL_FEE_IN_THOUSANDS_OF_PERCENT = 1000; // Initial fee is 1%\n    // TODO - can't do const structs yet Rect constant EMPTY = Rect(0,0,0,0);\n\n    // This is the maximum area of a single purchase block. This needs to be limited for the\n    // algorithm which figures out payment to function\n    uint16 constant MAXIMUM_PURCHASE_AREA = 1000;\n    \n    \n    function EthGrid() public payable {\n        admin = msg.sender;\n        feeInThousandsOfPercent = INITIAL_FEE_IN_THOUSANDS_OF_PERCENT;\n        \n        // Initialize the contract with a single block with the admin owns\n        ownership.push(ZoneOwnership(admin, 0, 0, GRID_WIDTH, GRID_HEIGHT, INITIAL_BUYOUT_IN_GWEI));\n        data.push(ZoneData(MimeType.PNG, \"\", \"http://ethgrid.com\"));\n        balances[admin] = 0;\n    }\n    \n    function doRectanglesOverlap(Rect memory a, Rect memory b) private pure returns (bool) {\n        return \n            a.x < b.x + b.w &&\n            a.x + a.w > b.x &&\n            a.y < b.y + b.h &&\n            a.y + a.h > b.y;\n    }\n    \n    function computeOverlap(Rect memory targetZone, Rect memory ownedZone) private pure returns (Rect[] memory) {\n        Rect[] memory brokenPieces = new Rect[](5);\n        \n        // The covered section is what actually has been accounted for by this particular ownedZone.\n        // Initialize it to be the entire targetZone, and subtract and we leave chunks around\n        Rect memory coveredSection = Rect(targetZone.x, targetZone.y, targetZone.w, targetZone.h);\n        \n        // Check the chunk to the left of things\n        if (ownedZone.x > targetZone.x) {\n            Rect memory leftRemainingSpan = Rect(targetZone.x, targetZone.y, ownedZone.x - targetZone.x, targetZone.h);\n            brokenPieces[0] = leftRemainingSpan;\n            \n            // Reduce the width and update the x\n            coveredSection.w = coveredSection.w - leftRemainingSpan.w;\n            coveredSection.x = ownedZone.x;\n        } else {\n            brokenPieces[0] = Rect(0,0,0,0);\n        }\n        \n        // Check the chunk to the right of things\n        if (ownedZone.x + ownedZone.w < targetZone.x + targetZone.w) {\n            Rect memory rightRemainingSpan = Rect(\n                ownedZone.x + ownedZone.w,\n                targetZone.y,\n                targetZone.x + targetZone.w - ownedZone.x - ownedZone.w,\n                targetZone.h);\n                \n            brokenPieces[1] = rightRemainingSpan;\n            \n            // Reduce the width\n            coveredSection.w = coveredSection.w - rightRemainingSpan.w;\n        } else {\n            brokenPieces[1] = Rect(0,0,0,0);\n        }\n        \n        // Check the top next\n        if (ownedZone.y > targetZone.y) {\n            Rect memory topRemainingSpan = Rect(targetZone.x, targetZone.y, targetZone.w, ownedZone.y - targetZone.y);\n            if (brokenPieces[0].w != 0) {\n                topRemainingSpan.x = ownedZone.x;\n                topRemainingSpan.w = topRemainingSpan.w - brokenPieces[0].w;\n            }\n            \n            if (brokenPieces[1].w != 0) {\n                topRemainingSpan.w = topRemainingSpan.w - brokenPieces[1].w;\n            }\n            \n            brokenPieces[2] = topRemainingSpan;\n            \n            // Reduce the height and update the y\n            coveredSection.h = coveredSection.h - topRemainingSpan.h;\n            coveredSection.y = ownedZone.y;\n        } else {\n            brokenPieces[2] = Rect(0,0,0,0);\n        }\n        \n        // Check the bottom finally\n        if (ownedZone.y + ownedZone.h < targetZone.y + targetZone.h) {\n            Rect memory bottomRemainingSpan = Rect(\n                targetZone.x,\n                ownedZone.y + ownedZone.h,\n                targetZone.w,\n                targetZone.y + targetZone.h - ownedZone.y - ownedZone.h);\n                \n            // Same logic as above\n            if (brokenPieces[0].w != 0) {\n                bottomRemainingSpan.x = ownedZone.x;\n                bottomRemainingSpan.w = bottomRemainingSpan.w - brokenPieces[0].w;\n            }\n            \n            if (brokenPieces[1].w != 0) {\n                bottomRemainingSpan.w = bottomRemainingSpan.w - brokenPieces[1].w;\n            }\n            \n            brokenPieces[3] = bottomRemainingSpan;\n            \n            // Reduce the height\n            coveredSection.h = coveredSection.h - bottomRemainingSpan.h;\n        } else {\n            brokenPieces[3] = Rect(0,0,0,0);\n        }\n        \n        // Return the actual overlapping part of the grid\n        brokenPieces[4] = coveredSection;\n        return brokenPieces;\n    }\n    \n    function determineCost(Rect memory targetZone, bool makePayment) private returns (uint) {\n        // Loop through and figure out how much and who we will owe. Initially everything is missing so we assign\n        // target zone to missing payments so we can divide that up\n        Rect[] memory missingPayments = new Rect[](targetZone.w * targetZone.h);\n        missingPayments[0] = targetZone;\n        \n        // TODO - Update endIndex to be modded by missingPayments length and make the loop\n        // check for != endIndex\n        uint16 endIndex = 1;\n        uint totalCost = 0;\n\n        // i is gonna wrap around, so make the loop check be i < ownership.length\n        for (uint i = ownership.length - 1; i < ownership.length; i--) {\n            \n            // Keep track if we've tracked everything. If we loop through every missed\n            // and there isn't anything there, we're done\n            bool targetCovered = true; \n            uint j = 0;\n            Rect memory zoneArea = Rect(ownership[i].x, ownership[i].y, ownership[i].w, ownership[i].h);\n            \n            // Go through all of the remaining sections which still need payment\n            while (j != endIndex) {\n                if (missingPayments[j].w == 0) {\n                  // If the payment has a width of 0, that means it's empty so we can just continue\n                  j++;\n                  continue;\n                } else {\n                    // We still have some stuff to account for so we can't short circuit\n                    targetCovered = false;\n                }\n                \n                // Check if these two rectagles overlap at all and compute that they will require\n                if (doRectanglesOverlap(missingPayments[j], zoneArea)) {\n                    // If these two overlap, we need to split the current missingPayment section\n                    // into multiple sections (or into nothing)\n                    Rect[] memory overlapCalc = computeOverlap(missingPayments[j], zoneArea);\n                    uint256 overlappingAreaCost = overlapCalc[4].w * overlapCalc[4].h * ownership[i].buyoutInGwei;\n                    totalCost += overlappingAreaCost;\n\n                    if (makePayment) {\n                      // If we are being asked to actually make the payment, change the balances here\n                      // TODO - Use safe add\n                      balances[ownership[i].owner] += overlappingAreaCost;\n                    }\n                    \n                    // Clear out the current item from the missing payments list\n                    missingPayments[j] = Rect(0,0,0,0);\n                    \n                    // Next put the remaining sections back on the mmissingPayments list\n                    if (overlapCalc[0].w != 0) {\n                        missingPayments[endIndex++] = overlapCalc[0];\n                    }\n                    \n                    if (overlapCalc[1].w != 0) {\n                        missingPayments[endIndex++] = overlapCalc[1];\n                    }\n                    \n                    if (overlapCalc[2].w != 0) {\n                        missingPayments[endIndex++] = overlapCalc[2];\n                    }\n                    \n                    if (overlapCalc[3].w != 0) {\n                        missingPayments[endIndex++] = overlapCalc[3];\n                    }\n                }\n                \n                j++;\n            }\n            \n            if (targetCovered) {\n                break;\n            }\n        }\n        \n        return totalCost;\n    }\n    \n    event AreaCost(uint16 x, uint16 y, uint16 w, uint16 h, uint totalCost);\n    \n    function buyArea(uint8 x, uint8 y, uint8 w, uint8 h, uint56 buyout) public {\n        require(x < 2**10);\n        require(y < 2**10);\n        \n        require(w < (2**10) - x);\n        require(h < (2**10) - y);\n        \n        Rect memory area = Rect(x, y, w, h);\n        uint totalCost = determineCost(area, false);\n        AreaCost(x, y, w, h, totalCost);\n        \n        ZoneOwnership memory newZone = ZoneOwnership(msg.sender, x, y, w, h, buyout);\n        ownership.push(newZone);\n    }\n    \n    function addData(uint8 x, uint8 y, uint8 w, uint8 h, uint56 buyout, MimeType mimeType, bytes imgData, string url) public payable {\n        // Validate all the inputs\n        require(x < GRID_WIDTH && x >= 0);\n        require(y < GRID_HEIGHT && y >= 0);\n        require(w > 0 && w < GRID_WIDTH - x);\n        require(h > 0 && h < GRID_HEIGHT - y);\n        require(w * h < MAXIMUM_PURCHASE_AREA);\n        \n        Rect memory area = Rect(x, y, w, h);\n        uint256 totalCost = determineCost(area, true); // Cost is in gwei\n        uint256 fee = (feeInThousandsOfPercent / 100000) * totalCost;\n\n        // Need to factor in the fees here as well\n        totalCost += fee;\n\n        totalCost = totalCost * 10**9;\n\n        // Finally, switch this over to wei instead of gwei\n        require (msg.value > totalCost);\n\n        // Next, actually capture the value from the msg, refund everything else\n\n        // TODO - SafeMath\n        balances[admin] += fee;\n        \n        // Add the new ownership to the array\n        ZoneOwnership memory newZone = ZoneOwnership(msg.sender, x, y, w, h, buyout);\n        ownership.push(newZone);\n        \n        // Take in the input data for the actual grid!\n        ZoneData memory newData = ZoneData(mimeType, imgData, url);\n        data.push(newData);\n    }\n}",
  "sourcePath": "/Users/sdesmond/GitHub/eth-grid/contract/contracts/EthGrid.sol",
  "compiler": {
    "name": "solc",
    "version": "0.4.18+commit.9cf6e910.Emscripten.clang"
  },
  "schemaVersion": "1.0.1",
  "updatedAt": "2017-12-11T08:16:29.657Z"
}