{
  "contractName": "EthGrid",
  "abi": [
    {
      "constant": false,
      "inputs": [
        {
          "name": "x",
          "type": "uint8"
        },
        {
          "name": "y",
          "type": "uint8"
        },
        {
          "name": "w",
          "type": "uint8"
        },
        {
          "name": "h",
          "type": "uint8"
        },
        {
          "name": "buyout",
          "type": "uint56"
        },
        {
          "name": "mimeType",
          "type": "string"
        },
        {
          "name": "imgData",
          "type": "bytes"
        },
        {
          "name": "url",
          "type": "string"
        }
      ],
      "name": "addData",
      "outputs": [],
      "payable": true,
      "stateMutability": "payable",
      "type": "function"
    },
    {
      "constant": true,
      "inputs": [
        {
          "name": "",
          "type": "uint256"
        }
      ],
      "name": "ownership",
      "outputs": [
        {
          "name": "owner",
          "type": "address"
        },
        {
          "name": "x",
          "type": "uint8"
        },
        {
          "name": "y",
          "type": "uint8"
        },
        {
          "name": "w",
          "type": "uint8"
        },
        {
          "name": "h",
          "type": "uint8"
        },
        {
          "name": "buyoutInGwei",
          "type": "uint56"
        }
      ],
      "payable": false,
      "stateMutability": "view",
      "type": "function"
    },
    {
      "constant": true,
      "inputs": [
        {
          "name": "",
          "type": "uint256"
        }
      ],
      "name": "data",
      "outputs": [
        {
          "name": "mimeType",
          "type": "string"
        },
        {
          "name": "data",
          "type": "bytes"
        },
        {
          "name": "url",
          "type": "string"
        }
      ],
      "payable": false,
      "stateMutability": "view",
      "type": "function"
    },
    {
      "constant": false,
      "inputs": [
        {
          "name": "x",
          "type": "uint8"
        },
        {
          "name": "y",
          "type": "uint8"
        },
        {
          "name": "w",
          "type": "uint8"
        },
        {
          "name": "h",
          "type": "uint8"
        },
        {
          "name": "buyout",
          "type": "uint56"
        }
      ],
      "name": "buyArea",
      "outputs": [],
      "payable": false,
      "stateMutability": "nonpayable",
      "type": "function"
    },
    {
      "inputs": [],
      "payable": true,
      "stateMutability": "payable",
      "type": "constructor"
    },
    {
      "anonymous": false,
      "inputs": [
        {
          "components": [
            {
              "name": "x",
              "type": "uint8"
            },
            {
              "name": "y",
              "type": "uint8"
            },
            {
              "name": "w",
              "type": "uint8"
            },
            {
              "name": "h",
              "type": "uint8"
            }
          ],
          "indexed": false,
          "name": "target",
          "type": "tuple"
        },
        {
          "components": [
            {
              "name": "x",
              "type": "uint8"
            },
            {
              "name": "y",
              "type": "uint8"
            },
            {
              "name": "w",
              "type": "uint8"
            },
            {
              "name": "h",
              "type": "uint8"
            }
          ],
          "indexed": false,
          "name": "ownedZone",
          "type": "tuple"
        }
      ],
      "name": "OverlapComputed",
      "type": "event"
    },
    {
      "anonymous": false,
      "inputs": [
        {
          "indexed": false,
          "name": "zoneArea",
          "type": "tuple",
          "components": [
            {
              "name": "x",
              "type": "uint8"
            },
            {
              "name": "y",
              "type": "uint8"
            },
            {
              "name": "w",
              "type": "uint8"
            },
            {
              "name": "h",
              "type": "uint8"
            }
          ]
        },
        {
          "indexed": false,
          "name": "y",
          "type": "uint16"
        },
        {
          "indexed": false,
          "name": "w",
          "type": "uint16"
        },
        {
          "indexed": false,
          "name": "h",
          "type": "uint16"
        },
        {
          "indexed": false,
          "name": "totalCost",
          "type": "uint256"
        }
      ],
      "name": "CheckingArea",
      "type": "event"
    },
    {
      "anonymous": false,
      "inputs": [
        {
          "indexed": false,
          "name": "length",
          "type": "uint256"
        },
        {
          "indexed": false,
          "name": "y",
          "type": "uint16"
        },
        {
          "indexed": false,
          "name": "w",
          "type": "uint16"
        },
        {
          "indexed": false,
          "name": "h",
          "type": "uint16"
        },
        {
          "indexed": false,
          "name": "totalCost",
          "type": "uint256"
        }
      ],
      "name": "OwnershipLength",
      "type": "event"
    },
    {
      "anonymous": false,
      "inputs": [
        {
          "indexed": false,
          "name": "x",
          "type": "uint16"
        },
        {
          "indexed": false,
          "name": "y",
          "type": "uint16"
        },
        {
          "indexed": false,
          "name": "w",
          "type": "uint16"
        },
        {
          "indexed": false,
          "name": "h",
          "type": "uint16"
        },
        {
          "indexed": false,
          "name": "totalCost",
          "type": "uint256"
        }
      ],
      "name": "AreaCost",
      "type": "event"
    }
  ],
  "bytecode": "0x6060604052600033600160006101000a81548173ffffffffffffffffffffffffffffffffffffffff021916908373ffffffffffffffffffffffffffffffffffffffff1602179055506103e8600081905550602a9050600280548060010182816200006a91906200031c565b9160005260206000209001600060c060405190810160405280600160009054906101000a900473ffffffffffffffffffffffffffffffffffffffff1673ffffffffffffffffffffffffffffffffffffffff168152602001600060ff168152602001600060ff16815260200160ff8016815260200160ff801681526020018566ffffffffffffff16815250909190915060008201518160000160006101000a81548173ffffffffffffffffffffffffffffffffffffffff021916908373ffffffffffffffffffffffffffffffffffffffff16021790555060208201518160000160146101000a81548160ff021916908360ff16021790555060408201518160000160156101000a81548160ff021916908360ff16021790555060608201518160000160166101000a81548160ff021916908360ff16021790555060808201518160000160176101000a81548160ff021916908360ff16021790555060a08201518160000160186101000a81548166ffffffffffffff021916908366ffffffffffffff160217905550505050600380548060010182816200020a91906200034b565b916000526020600020906003020160006060604051908101604052806040805190810160405280600781526020017f696d672f706e67000000000000000000000000000000000000000000000000008152508152602001602060405190810160405280600081525081526020016040805190810160405280601281526020017f687474703a2f2f657468677269642e636f6d000000000000000000000000000081525081525090919091506000820151816000019080519060200190620002d392919062000380565b506020820151816001019080519060200190620002f292919062000407565b5060408201518160020190805190602001906200031192919062000380565b505050505062000659565b81548183558181151162000346578183600052602060002091820191016200034591906200048e565b5b505050565b8154818355818115116200037b576003028160030283600052602060002091820191016200037a919062000541565b5b505050565b828054600181600116156101000203166002900490600052602060002090601f016020900481019282601f10620003c357805160ff1916838001178555620003f4565b82800160010185558215620003f4579182015b82811115620003f3578251825591602001919060010190620003d6565b5b50905062000403919062000599565b5090565b828054600181600116156101000203166002900490600052602060002090601f016020900481019282601f106200044a57805160ff19168380011785556200047b565b828001600101855582156200047b579182015b828111156200047a5782518255916020019190600101906200045d565b5b5090506200048a919062000599565b5090565b6200053e91905b808211156200053a57600080820160006101000a81549073ffffffffffffffffffffffffffffffffffffffff02191690556000820160146101000a81549060ff02191690556000820160156101000a81549060ff02191690556000820160166101000a81549060ff02191690556000820160176101000a81549060ff02191690556000820160186101000a81549066ffffffffffffff02191690555060010162000495565b5090565b90565b6200059691905b80821115620005925760008082016000620005649190620005c1565b6001820160006200057691906200060d565b600282016000620005889190620005c1565b5060030162000548565b5090565b90565b620005be91905b80821115620005ba576000816000905550600101620005a0565b5090565b90565b50805460018160011615610100020316600290046000825580601f10620005e957506200060a565b601f01602090049060005260206000209081019062000609919062000599565b5b50565b50805460018160011615610100020316600290046000825580601f1062000635575062000656565b601f01602090049060005260206000209081019062000655919062000599565b5b50565b611b5780620006696000396000f300606060405260043610610062576000357c0100000000000000000000000000000000000000000000000000000000900463ffffffff16806376f2dce914610067578063a0f45b6914610181578063f0ba844014610231578063fd5a7a87146103fc575b600080fd5b61017f600480803560ff1690602001909190803560ff1690602001909190803560ff1690602001909190803560ff1690602001909190803566ffffffffffffff1690602001909190803590602001908201803590602001908080601f0160208091040260200160405190810160405280939291908181526020018383808284378201915050505050509190803590602001908201803590602001908080601f0160208091040260200160405190810160405280939291908181526020018383808284378201915050505050509190803590602001908201803590602001908080601f01602080910402602001604051908101604052809392919081815260200183838082843782019150505050505091905050610458565b005b341561018c57600080fd5b6101a26004808035906020019091905050610746565b604051808773ffffffffffffffffffffffffffffffffffffffff1673ffffffffffffffffffffffffffffffffffffffff1681526020018660ff1660ff1681526020018560ff1660ff1681526020018460ff1660ff1681526020018360ff1660ff1681526020018266ffffffffffffff1666ffffffffffffff168152602001965050505050505060405180910390f35b341561023c57600080fd5b61025260048080359060200190919050506107f5565b604051808060200180602001806020018481038452878181546001816001161561010002031660029004815260200191508054600181600116156101000203166002900480156102e35780601f106102b8576101008083540402835291602001916102e3565b820191906000526020600020905b8154815290600101906020018083116102c657829003601f168201915b50508481038352868181546001816001161561010002031660029004815260200191508054600181600116156101000203166002900480156103665780601f1061033b57610100808354040283529160200191610366565b820191906000526020600020905b81548152906001019060200180831161034957829003601f168201915b50508481038252858181546001816001161561010002031660029004815260200191508054600181600116156101000203166002900480156103e95780601f106103be576101008083540402835291602001916103e9565b820191906000526020600020905b8154815290600101906020018083116103cc57829003601f168201915b5050965050505050505060405180910390f35b341561040757600080fd5b610456600480803560ff1690602001909190803560ff1690602001909190803560ff1690602001909190803560ff1690602001909190803566ffffffffffffff1690602001909190505061082b565b005b6104606116dd565b600061046a611712565b610472611774565b6104008c60ff1610151561048557600080fd5b6104008b60ff1610151561049857600080fd5b8b60ff166104000361ffff168a60ff161015156104b457600080fd5b8a60ff166104000361ffff168960ff161015156104d057600080fd5b6080604051908101604052808d60ff1681526020018c60ff1681526020018b60ff1681526020018a60ff16815250935061050984610ad0565b9250823411151561051957600080fd5b60c0604051908101604052803373ffffffffffffffffffffffffffffffffffffffff1681526020018d60ff1681526020018c60ff1681526020018b60ff1681526020018a60ff1681526020018966ffffffffffffff1681525091506002805480600101828161058891906117a8565b9160005260206000209001600084909190915060008201518160000160006101000a81548173ffffffffffffffffffffffffffffffffffffffff021916908373ffffffffffffffffffffffffffffffffffffffff16021790555060208201518160000160146101000a81548160ff021916908360ff16021790555060408201518160000160156101000a81548160ff021916908360ff16021790555060608201518160000160166101000a81548160ff021916908360ff16021790555060808201518160000160176101000a81548160ff021916908360ff16021790555060a08201518160000160186101000a81548166ffffffffffffff021916908366ffffffffffffff160217905550505050606060405190810160405280888152602001878152602001868152509050600380548060010182816106c891906117d4565b9160005260206000209060030201600083909190915060008201518160000190805190602001906106fa929190611806565b506020820151816001019080519060200190610717929190611886565b506040820151816002019080519060200190610734929190611806565b50505050505050505050505050505050565b60028181548110151561075557fe5b90600052602060002090016000915090508060000160009054906101000a900473ffffffffffffffffffffffffffffffffffffffff16908060000160149054906101000a900460ff16908060000160159054906101000a900460ff16908060000160169054906101000a900460ff16908060000160179054906101000a900460ff16908060000160189054906101000a900466ffffffffffffff16905086565b60038181548110151561080457fe5b90600052602060002090600302016000915090508060000190806001019080600201905083565b6108336116dd565b600061083d611712565b6104008860ff1610151561085057600080fd5b6104008760ff1610151561086357600080fd5b8760ff166104000361ffff168660ff1610151561087f57600080fd5b8660ff166104000361ffff168560ff1610151561089b57600080fd5b6080604051908101604052808960ff1681526020018860ff1681526020018760ff1681526020018660ff1681525092506108d483610ad0565b91507f418afd8b97a480b9a90db223b6bcf7770411c83066fd9fbad2e67d8514eba1da8888888886604051808660ff1661ffff1681526020018560ff1661ffff1681526020018460ff1661ffff1681526020018360ff1661ffff1681526020018281526020019550505050505060405180910390a160c0604051908101604052803373ffffffffffffffffffffffffffffffffffffffff1681526020018960ff1681526020018860ff1681526020018760ff1681526020018660ff1681526020018566ffffffffffffff168152509050600280548060010182816109b891906117a8565b9160005260206000209001600083909190915060008201518160000160006101000a81548173ffffffffffffffffffffffffffffffffffffffff021916908373ffffffffffffffffffffffffffffffffffffffff16021790555060208201518160000160146101000a81548160ff021916908360ff16021790555060408201518160000160156101000a81548160ff021916908360ff16021790555060608201518160000160166101000a81548160ff021916908360ff16021790555060808201518160000160176101000a81548160ff021916908360ff16021790555060a08201518160000160186101000a81548166ffffffffffffff021916908366ffffffffffffff1602179055505050505050505050505050565b6000610ada611906565b6000806000610ae76116dd565b600080610af2611906565b89606001518a604001510260ff16604051805910610b0d5750595b908082528060200260200182016040528015610b4357816020015b610b3061191a565b815260200190600190039081610b285790505b50975089886000815181101515610b5657fe5b9060200190602002018190525060019650600095507f02c88d0534b1df9bcb833d91d26f1d6588903812b6e2c8e200b1badc3f739a276002805490506040518082815260200191505060405180910390a160016002805490500394505b600280549050851015610ff757608060405190810160405280600287815481101515610bdb57fe5b906000526020600020900160000160149054906101000a900460ff1660ff168152602001600287815481101515610c0e57fe5b906000526020600020900160000160159054906101000a900460ff1660ff168152602001600287815481101515610c4157fe5b906000526020600020900160000160169054906101000a900460ff1660ff168152602001600287815481101515610c7457fe5b906000526020600020900160000160179054906101000a900460ff1660ff1681525093507f379399285e37f3b35995fde3733d525f8910b86f0d053c21904bb682a284be01846040518082815260200191505060405180910390a160009250600191505b8661ffff1683141515610fde5760008884815181101515610cf557fe5b906020019060200201516040015160ff161415610d19578280600101935050610cd8565b60009150610d3e8884815181101515610d2e57fe5b9060200190602002015185611007565b15610fd157610d648884815181101515610d5457fe5b9060200190602002015185611085565b9050600285815481101515610d7557fe5b906000526020600020900160000160189054906101000a900466ffffffffffffff16816004815181101515610da657fe5b9060200190602002015160600151826004815181101515610dc357fe5b90602001906020020151604001510260ff160266ffffffffffffff1686019550608060405190810160405280600060ff168152602001600060ff168152602001600060ff168152602001600060ff168152508884815181101515610e2357fe5b906020019060200201819052506000816000815181101515610e4157fe5b906020019060200201516040015160ff16141515610e9857806000815181101515610e6857fe5b90602001906020020151888880600101995061ffff16815181101515610e8a57fe5b906020019060200201819052505b6000816001815181101515610ea957fe5b906020019060200201516040015160ff16141515610f0057806001815181101515610ed057fe5b90602001906020020151888880600101995061ffff16815181101515610ef257fe5b906020019060200201819052505b6000816002815181101515610f1157fe5b906020019060200201516040015160ff16141515610f6857806002815181101515610f3857fe5b90602001906020020151888880600101995061ffff16815181101515610f5a57fe5b906020019060200201819052505b6000816003815181101515610f7957fe5b906020019060200201516040015160ff16141515610fd057806003815181101515610fa057fe5b90602001906020020151888880600101995061ffff16815181101515610fc257fe5b906020019060200201819052505b5b8280600101935050610cd8565b8115610fe957610ff7565b848060019003955050610bb3565b8598505050505050505050919050565b6000816040015182600001510160ff16836000015160ff1610801561103f5750816000015160ff16836040015184600001510160ff16115b801561105e5750816060015182602001510160ff16836020015160ff16105b801561107d5750816020015160ff16836060015184602001510160ff16115b905092915050565b61108d611906565b611095611906565b61109d6116dd565b6110a56116dd565b6110ad6116dd565b6110b56116dd565b6110bd6116dd565b6110c56116dd565b60056040518059106110d45750595b90808252806020026020018201604052801561110a57816020015b6110f761191a565b8152602001906001900390816110ef5790505b509650608060405190810160405280600060ff168152602001600060ff168152602001600060ff168152602001600060ff1681525095506080604051908101604052808b6000015160ff1681526020018b6020015160ff1681526020018b6040015160ff1681526020018b6060015160ff168152509450896000015160ff16896000015160ff161115611231576080604051908101604052808b6000015160ff1681526020018b6020015160ff1681526020018b600001518b600001510360ff1681526020018b6060015160ff168152509350838760008151811015156111ed57fe5b906020019060200201819052508360400151856040015103856040019060ff16908160ff16815250508860000151856000019060ff16908160ff168152505061124f565b8587600081518110151561124157fe5b906020019060200201819052505b89604001518a600001510160ff1689604001518a600001510160ff161015611307576080604051908101604052808a604001518b600001510160ff1681526020018b6020015160ff1681526020018a604001518b600001518d604001518e6000015101030360ff1681526020018b6060015160ff168152509250828760018151811015156112d957fe5b906020019060200201819052508260400151856040015103856040019060ff16908160ff1681525050611325565b8587600181518110151561131757fe5b906020019060200201819052505b896020015160ff16896020015160ff1611156114a7576080604051908101604052808b6000015160ff1681526020018b6020015160ff1681526020018b6040015160ff1681526020018b602001518b602001510360ff168152509150600087600081518110151561139257fe5b906020019060200201516040015160ff161415156113f5578860000151826000019060ff16908160ff16815250508660008151811015156113cf57fe5b9060200190602002015160400151826040015103826040019060ff16908160ff16815250505b600087600181518110151561140657fe5b906020019060200201516040015160ff161415156114535786600181518110151561142d57fe5b9060200190602002015160400151826040015103826040019060ff16908160ff16815250505b8187600281518110151561146357fe5b906020019060200201819052508160600151856060015103856060019060ff16908160ff16815250508860200151856020019060ff16908160ff16815250506114c5565b858760028151811015156114b757fe5b906020019060200201819052505b89606001518a602001510160ff1689606001518a602001510160ff16101561164f576080604051908101604052808b6000015160ff1681526020018a606001518b602001510160ff1681526020018b6040015160ff1681526020018a606001518b602001518d606001518e6020015101030360ff168152509050600087600081518110151561155057fe5b906020019060200201516040015160ff161415156115b3578860000151816000019060ff16908160ff168152505086600081518110151561158d57fe5b9060200190602002015160400151816040015103816040019060ff16908160ff16815250505b60008760018151811015156115c457fe5b906020019060200201516040015160ff16141515611611578660018151811015156115eb57fe5b9060200190602002015160400151816040015103816040019060ff16908160ff16815250505b8087600381518110151561162157fe5b906020019060200201819052508060600151856060015103856060019060ff16908160ff1681525050611671565b600087600381518110151561166057fe5b906020019060200201516040015150505b8487600481518110151561168157fe5b906020019060200201819052507f73d4b7462f437e7cb3e6be602ce23af98a2d58026458f91ee62eac7d9695dd348a8a604051808381526020018281526020019250505060405180910390a18697505050505050505092915050565b608060405190810160405280600060ff168152602001600060ff168152602001600060ff168152602001600060ff1681525090565b60c060405190810160405280600073ffffffffffffffffffffffffffffffffffffffff168152602001600060ff168152602001600060ff168152602001600060ff168152602001600060ff168152602001600066ffffffffffffff1681525090565b60606040519081016040528061178861194f565b8152602001611795611963565b81526020016117a261194f565b81525090565b8154818355818115116117cf578183600052602060002091820191016117ce9190611977565b5b505050565b815481835581811511611801576003028160030283600052602060002091820191016118009190611a27565b5b505050565b828054600181600116156101000203166002900490600052602060002090601f016020900481019282601f1061184757805160ff1916838001178555611875565b82800160010185558215611875579182015b82811115611874578251825591602001919060010190611859565b5b5090506118829190611a76565b5090565b828054600181600116156101000203166002900490600052602060002090601f016020900481019282601f106118c757805160ff19168380011785556118f5565b828001600101855582156118f5579182015b828111156118f45782518255916020019190600101906118d9565b5b5090506119029190611a76565b5090565b602060405190810160405280600081525090565b608060405190810160405280600060ff168152602001600060ff168152602001600060ff168152602001600060ff1681525090565b602060405190810160405280600081525090565b602060405190810160405280600081525090565b611a2491905b80821115611a2057600080820160006101000a81549073ffffffffffffffffffffffffffffffffffffffff02191690556000820160146101000a81549060ff02191690556000820160156101000a81549060ff02191690556000820160166101000a81549060ff02191690556000820160176101000a81549060ff02191690556000820160186101000a81549066ffffffffffffff02191690555060010161197d565b5090565b90565b611a7391905b80821115611a6f5760008082016000611a469190611a9b565b600182016000611a569190611ae3565b600282016000611a669190611a9b565b50600301611a2d565b5090565b90565b611a9891905b80821115611a94576000816000905550600101611a7c565b5090565b90565b50805460018160011615610100020316600290046000825580601f10611ac15750611ae0565b601f016020900490600052602060002090810190611adf9190611a76565b5b50565b50805460018160011615610100020316600290046000825580601f10611b095750611b28565b601f016020900490600052602060002090810190611b279190611a76565b5b505600a165627a7a72305820a568f531066499431df71ed32bb4b5cdeb9cd6f34f49ebee99019a0ae28daf9a0029",
  "source": "pragma solidity ^0.4.18;\ncontract EthGrid {\n    struct Rect {\n        uint8 x;\n        uint8 y;\n        uint8 w;\n        uint8 h;\n    }\n    \n    struct ZoneOwnership {\n        address owner;\n        uint8 x;\n        uint8 y;\n        uint8 w;\n        uint8 h;\n        uint56 buyoutInGwei;\n    }\n    \n    struct ZoneData {\n        string mimeType;\n        bytes data;\n        string url;\n    }\n    \n    uint feeInThousandsOfPercent;\n    address admin;\n    ZoneOwnership[] public ownership;\n    ZoneData[] public data;\n    \n    function EthGrid() public payable {\n        admin = msg.sender;\n        feeInThousandsOfPercent = 1000; // Initial fee is 1%\n        \n        // Initialize the contract\n        uint56 buyout = 42;\n        ownership.push(ZoneOwnership(admin, 0, 0, 255, 255, buyout));\n        \n        data.push(ZoneData(\"img/png\", \"\", \"http://ethgrid.com\"));\n    }\n    \n    function doRectanglesOverlap(Rect memory a, Rect memory b) private pure returns (bool) {\n        // if (RectA.Left < RectB.Right && RectA.Right > RectB.Left &&\n        // RectA.Top > RectB.Bottom && RectA.Bottom < RectB.Top ) \n        return \n            a.x < b.x + b.w &&\n            a.x + a.w > b.x &&\n            a.y < b.y + b.h &&\n            a.y + a.h > b.y;\n    }\n    \n    event OverlapComputed(Rect target, Rect ownedZone);\n\n    function computeOverlap(Rect memory targetZone, Rect memory ownedZone) private  returns (Rect[] memory) {\n        Rect[] memory brokenPieces = new Rect[](5);\n        Rect memory empty = Rect(0,0,0,0);\n        \n        // The covered section is what actually has been accounted for by this particular ownedZone.\n        // Initialize it to be the entire targetZone, and subtract and we leave chunks around\n        Rect memory coveredSection = Rect(targetZone.x, targetZone.y, targetZone.w, targetZone.h);\n        \n        // Check the chunk to the left of things\n        if (ownedZone.x > targetZone.x) {\n            Rect memory leftRemainingSpan = Rect(targetZone.x, targetZone.y, ownedZone.x - targetZone.x, targetZone.h);\n            brokenPieces[0] = leftRemainingSpan;\n            \n            // Reduce the width and update the x\n            coveredSection.w = coveredSection.w - leftRemainingSpan.w;\n            coveredSection.x = ownedZone.x;\n        } else {\n            brokenPieces[0] = empty;\n        }\n        \n        // Check the chunk to the right of things\n        if (ownedZone.x + ownedZone.w < targetZone.x + targetZone.w) {\n            Rect memory rightRemainingSpan = Rect(\n                ownedZone.x + ownedZone.w,\n                targetZone.y,\n                targetZone.x + targetZone.w - ownedZone.x - ownedZone.w,\n                targetZone.h);\n                \n            brokenPieces[1] = rightRemainingSpan;\n            \n            // Reduce the width\n            coveredSection.w = coveredSection.w - rightRemainingSpan.w;\n        } else {\n            brokenPieces[1] = empty;\n        }\n        \n        // Check the top next\n        if (ownedZone.y > targetZone.y) {\n            Rect memory topRemainingSpan = Rect(targetZone.x, targetZone.y, targetZone.w, ownedZone.y - targetZone.y);\n            if (brokenPieces[0].w != 0) {\n                topRemainingSpan.x = ownedZone.x;\n                topRemainingSpan.w = topRemainingSpan.w - brokenPieces[0].w;\n            }\n            \n            if (brokenPieces[1].w != 0) {\n                topRemainingSpan.w = topRemainingSpan.w - brokenPieces[1].w;\n            }\n            \n            brokenPieces[2] = topRemainingSpan;\n            \n            // Reduce the height and update the y\n            coveredSection.h = coveredSection.h - topRemainingSpan.h;\n            coveredSection.y = ownedZone.y;\n        } else {\n            brokenPieces[2] = empty;\n        }\n        \n        // Check the bottom finally\n        if (ownedZone.y + ownedZone.h < targetZone.y + targetZone.h) {\n            Rect memory bottomRemainingSpan = Rect(\n                targetZone.x,\n                ownedZone.y + ownedZone.h,\n                targetZone.w,\n                targetZone.y + targetZone.h - ownedZone.y - ownedZone.h);\n                \n            // Same logic as above\n            if (brokenPieces[0].w != 0) {\n                bottomRemainingSpan.x = ownedZone.x;\n                bottomRemainingSpan.w = bottomRemainingSpan.w - brokenPieces[0].w;\n            }\n            \n            if (brokenPieces[1].w != 0) {\n                bottomRemainingSpan.w = bottomRemainingSpan.w - brokenPieces[1].w;\n            }\n            \n            brokenPieces[3] = bottomRemainingSpan;\n            \n            // Reduce the height\n            coveredSection.h = coveredSection.h - bottomRemainingSpan.h;\n        } else {\n            brokenPieces[3].w != 0;\n        }\n        \n        brokenPieces[4] = coveredSection;\n\n        OverlapComputed(targetZone, ownedZone);\n\n        return brokenPieces;\n    }\n    \n    event CheckingArea(Rect zoneArea);\n    event OwnershipLength(uint length);\n    function determineCost(Rect memory targetZone) private  returns (uint) {\n        // Loop through and figure out how much and who we will owe. Initially everything is missing\n        // uint40[] memory missingPayments = new uint40[](targetZone.w * targetZone.h);\n        Rect[] memory missingPayments = new Rect[](targetZone.w * targetZone.h);\n        missingPayments[0] = targetZone;\n        \n        // TODO - Update endIndex to be modded by missingPayments length and make the loop\n        // check for != endIndex\n        uint16 endIndex = 1;\n        \n        uint totalCost = 0;\n\n        OwnershipLength(ownership.length);\n        \n        // i is gonna wrap around, so make the loop check be i < ownership.length\n        for (uint i = ownership.length - 1; i < ownership.length; i--) {\n            Rect memory zoneArea = Rect(ownership[i].x, ownership[i].y, ownership[i].w, ownership[i].h);\n            CheckingArea(zoneArea);\n            uint j = 0;\n            \n            // Keep track if we've tracked everything. If we loop through every missed\n            // and there isn't anything there, we're done\n            bool targetCovered = true; \n            \n            // Go through all of the remaining sections which still need payment\n            while (j != endIndex) {\n                if (missingPayments[j].w == 0) {\n                    j++;\n                    continue;\n                } else {\n                    // We still have some stuff to cover\n                    targetCovered = false;\n                }\n                \n                \n                if (doRectanglesOverlap(missingPayments[j], zoneArea)) {\n                    // If these two overlap, we need to split the current missingPayment section\n                    // into multiple sections (or into nothing)\n                    Rect[] memory overlapCalc = computeOverlap(missingPayments[j], zoneArea);\n                    totalCost += overlapCalc[4].w * overlapCalc[4].h * ownership[i].buyoutInGwei;\n                    \n                    // Clear out the current item from the missing payments list\n                    missingPayments[j] = Rect(0,0,0,0);\n                    \n                    // Next put the remaining sections back on the mmissingPayments list\n                    if (overlapCalc[0].w != 0) {\n                        missingPayments[endIndex++] = overlapCalc[0];\n                    }\n                    \n                    if (overlapCalc[1].w != 0) {\n                        missingPayments[endIndex++] = overlapCalc[1];\n                    }\n                    \n                    if (overlapCalc[2].w != 0) {\n                        missingPayments[endIndex++] = overlapCalc[2];\n                    }\n                    \n                    if (overlapCalc[3].w != 0) {\n                        missingPayments[endIndex++] = overlapCalc[3];\n                    }\n                }\n                \n                j++;\n            }\n            \n            if (targetCovered) {\n                break;\n            }\n        }\n        \n        return totalCost;\n    }\n    \n    event AreaCost(uint16 x, uint16 y, uint16 w, uint16 h, uint totalCost);\n    \n    function buyArea(uint8 x, uint8 y, uint8 w, uint8 h, uint56 buyout) public {\n        require(x < 2**10);\n        require(y < 2**10);\n        \n        require(w < (2**10) - x);\n        require(h < (2**10) - y);\n        \n        Rect memory area = Rect(x, y, w, h);\n        uint totalCost = determineCost(area);\n        AreaCost(x, y, w, h, totalCost);\n        \n        ZoneOwnership memory newZone = ZoneOwnership(msg.sender, x, y, w, h, buyout);\n        ownership.push(newZone);\n    }\n    \n    function addData(uint8 x, uint8 y, uint8 w, uint8 h, uint56 buyout, string mimeType, bytes imgData, string url) public payable {\n        // Validate all the inputs\n        require(x < 2**10);\n        require(y < 2**10);\n        require(w < (2**10) - x);\n        require(h < (2**10) - y);\n        \n        Rect memory area = Rect(x, y, w, h);\n        uint totalCost = determineCost(area);\n        require (msg.value > totalCost);\n        \n        ZoneOwnership memory newZone = ZoneOwnership(msg.sender, x, y, w, h, buyout);\n        ownership.push(newZone);\n        \n        ZoneData memory newData = ZoneData(mimeType, imgData, url);\n        data.push(newData);\n    }\n}",
  "sourcePath": "/Users/sdesmond/GitHub/eth-grid/contract/contracts/EthGrid.sol",
  "compiler": {
    "name": "solc",
    "version": "0.4.18+commit.9cf6e910.Emscripten.clang"
  },
  "schemaVersion": "1.0.1",
  "updatedAt": "2017-12-11T07:04:54.034Z"
}